:100000000C942A000C9447000C9447000C94470071
:100010000C9447000C9447000C9447000C94470044
:100020000C9447000C9447000C948C140C944D14C1
:100030000C9447000C9447000C9447000C94470024
:100040000C9422060C9447000C9447000C94470033
:100050000C94470011241FBECFE5D8E0DEBFCDBF12
:1000600010E0A0E6B0E0E0E7F2E302C005900D92F8
:10007000A03EB107D9F710E0A0EEB0E001C01D929C
:10008000A43FB107E1F70E947A160C9436190C943C
:100090000000EF92FF920F931F937B018C0120E0F1
:1000A00030E040E05FE40E94490388238CF0C801FF
:1000B000B70120E030E040E05FE40E94C1010E940F
:1000C000A9039B01AC01205030404040504806C07D
:1000D000C801B7010E94A9039B01AC01B901CA0183
:1000E0001F910F91FF90EF900895A0E0B0E0EBE733
:1000F000F0E00C94FF18DC012B01FA019C91923086
:1001000008F439C1EB018881823008F433C194309E
:1001100069F4843009F02FC111969C91119789815F
:10012000981709F428C1A6ECB0E025C1843009F481
:1001300021C18230A9F4923009F01DC19A01AD01AC
:1001400088E0EA010990AE01E90109929E0181501F
:10015000C1F7E201898111969C918923818308C1AD
:10016000923009F407C112962D903C901397EB0141
:100170008A819B811496AD90BD90CD90DC901797AD
:10018000EC80FD800E811F819101281B390BB90184
:1001900037FF04C066277727621B730B6032710537
:1001A0000CF061C0121613066CF537014801062EDB
:1001B00004C096948794779467940A94D2F721E0C8
:1001C00030E040E050E004C0220F331F441F551FB1
:1001D0006A95D2F721503040404050402E213F21B7
:1001E00040235123211531054105510521F021E01E
:1001F00030E040E050E079018A01E628F72808293C
:1002000019293CC0232BD1F1260E371E350146019A
:10021000062E04C096948794779467940A94D2F734
:1002200021E030E040E050E004C0220F331F441FC3
:10023000551F6A95D2F721503040404050402A2146
:100240003B214C215D21211531054105510521F04E
:1002500021E030E040E050E059016A01A628B728CB
:10026000C828D9280BC0821593052CF01C01AA249C
:10027000BB24650103C0EE24FF24870111969C91E5
:10028000D20111968C91981709F445C0992339F041
:10029000A80197012A193B094C095D0906C0A6016E
:1002A00095012E193F09400B510B57FD08C01182D3
:1002B0003382228224833583468357831DC081E0A5
:1002C00081833382228288279927DC01821B930B4A
:1002D000A40BB50B84839583A683B7830DC0220F2F
:1002E000331F441F551F24833583468357838281E0
:1002F000938101979383828324813581468157813D
:10030000DA01C9010197A109B1098F5F9F4FAF4F72
:10031000BF4328F30BC0918333822282EA0CFB1C7B
:100320000C1D1D1DE482F5820683178383E0808304
:10033000248135814681578157FF1AC0C901AA27F8
:1003400097FDA095BA2F81709070A070B0705695EF
:10035000479537952795822B932BA42BB52B848318
:100360009583A683B7838281938101969383828349
:10037000DF0101C0D201CD01CDB7DEB7E2E10C94BF
:100380001B19A0E2B0E0E7ECF1E00C940B196983D3
:100390007A838B839C832D833E834F835887E9E048
:1003A000EE2EF12CEC0EFD1ECE010196B7010E943F
:1003B000D2048E010F5E1F4FCE010596B8010E9438
:1003C000D2048A8991E089278A8BC701B801AE01DE
:1003D000475E5F4F0E9475000E94FD03A096E6E015
:1003E0000C942719A0E2B0E0E8EFF1E00C940B19AF
:1003F00069837A838B839C832D833E834F835887C5
:10040000F9E0EF2EF12CEC0EFD1ECE010196B701A6
:100410000E94D2048E010F5E1F4FCE010596B801D7
:100420000E94D204C701B801AE01475E5F4F0E942F
:1004300075000E94FD03A096E6E00C942719A0E247
:10044000B0E0E5E2F2E00C94FF1869837A838B83D5
:100450009C832D833E834F835887CE010196BE0136
:10046000675F7F4F0E94D204CE010596BE016F5E8A
:100470007F4F0E94D2049985923088F0898982301A
:10048000C8F0943019F4823051F404C0843029F457
:10049000923081F486EC90E0C6C0923049F420E0BE
:1004A0009A858A89981321E02A87CE010996BBC0D4
:1004B000823049F420E09A858A89981321E02A8BBA
:1004C000CE014196B0C02D843E844F8458886D88FB
:1004D0007E888F88988CEE24FF248701AA24BB2471
:1004E000650140E050E060E070E0E0E0F0E0C10174
:1004F00081709070892BE9F0E60CF71C081D191D1E
:100500009A01AB012A0D3B1D4C1D5D1D80E090E062
:10051000A0E0B0E0E614F7040805190520F481E036
:1005200090E0A0E0B0E0BA01A901480F591F6A1F8E
:100530007B1FAA0CBB1CCC1CDD1C97FE08C081E0F5
:1005400090E0A0E0B0E0A82AB92ACA2ADB2A3196B6
:10055000E032F10549F0660C771C881C991C569412
:10056000479437942794C3CFFA85EA892B893C892D
:100570008B859C85280F391F2E5F3F4F17C0CA01FE
:1005800081709070892B61F016950795F794E79428
:1005900080E090E0A0E0B0E8E82AF92A0A2B1B2BC3
:1005A00076956795579547952F5F3F4F77FDE7CF36
:1005B0000CC0440F551F661F771F17FD4160EE0CDE
:1005C000FF1C001F111F21503040403090E05907A0
:1005D00090E0690790E4790760F32B8F3C8FDB0193
:1005E000CA018F779070A070B07080349105A1051A
:1005F000B10561F447FD0AC0E114F10401051105DC
:1006000029F0405C5F4F6F4F7F4F40781A8EFE1786
:1006100011F081E08A8F4D8F5E8F6F8F78A383E01A
:10062000898FCE0149960E94FD03A096E2E10C94C9
:100630001B19A8E1B0E0EFE1F3E00C940B1969831A
:100640007A838B839C832D833E834F83588789E0F5
:10065000E82EF12CEC0EFD1ECE010196B7010E9492
:10066000D2048E010F5E1F4FCE010596B8010E9485
:10067000D2048985823040F08989823028F0C70110
:10068000B8010E944A0501C08FEF6896E6E00C941D
:100690002719A8E1B0E0EFE4F3E00C940B196983AB
:1006A0007A838B839C832D833E834F83588789E095
:1006B000E82EF12CEC0EFD1ECE010196B7010E9432
:1006C000D2048E010F5E1F4FCE010596B8010E9425
:1006D000D2048985823040F08989823028F0C701B0
:1006E000B8010E944A0501C08FEF6896E6E00C94BD
:1006F0002719A8E1B0E0EFE7F3E00C940B19698348
:100700007A838B839C832D833E834F83588789E034
:10071000E82EF12CEC0EFD1ECE010196B7010E94D1
:10072000D2048E010F5E1F4FCE010596B8010E94C4
:10073000D2048985823040F08989823028F0C7014F
:10074000B8010E944A0501C081E06896E6E00C9479
:100750002719ACE0B0E0EFEAF3E00C940F196983DD
:100760007A838B839C83CE010196BE016B5F7F4FA2
:100770000E94D2048D81823061F1823050F1843048
:1007800021F48E81882351F12EC02F81388537FDC9
:1007900020C06E812F3131051CF06623F9F023C093
:1007A0008EE190E0821B930B29853A854B855C8511
:1007B00004C056954795379527958A95D2F76623B5
:1007C000B1F050954095309521953F4F4F4F5F4F79
:1007D0000EC020E030E040E050E009C02FEF3FEFD6
:1007E0004FEF5FE704C020E030E040E050E8B9019F
:1007F000CA012C96E2E00C942B19DF92EF92FF9243
:100800000F931F93FC01E480F58006811781D1804E
:100810008081823048F480E090E0A0E1B0E0E82AF6
:10082000F92A0A2B1B2BA5C0843009F49FC0823003
:1008300021F4EE24FF24870105C0E114F104010531
:10084000110519F4E0E0F0E096C0628173819FEF3A
:10085000623879070CF05BC022E83FEF261B370BAC
:100860002A3131052CF020E030E040E050E02AC091
:10087000B801A701022E04C0769567955795479554
:100880000A94D2F781E090E0A0E0B0E004C0880FC5
:10089000991FAA1FBB1F2A95D2F70197A109B10979
:1008A0008E219F21A023B1230097A105B10521F03E
:1008B00081E090E0A0E0B0E09A01AB01282B392B59
:1008C0004A2B5B2BDA01C9018F779070A070B07052
:1008D00080349105A105B10539F427FF09C0205CDA
:1008E0003F4F4F4F5F4F04C0215C3F4F4F4F5F4F13
:1008F000E0E0F0E02030A0E03A07A0E04A07A0E402
:100900005A0710F0E1E0F0E079018A0127C0603871
:10091000710564F5FB01E158FF4FD801C7018F77DE
:100920009070A070B07080349105A105B10539F4C4
:10093000E7FE0DC080E490E0A0E0B0E004C08FE3EB
:1009400090E0A0E0B0E0E80EF91E0A1F1B1F17FFA1
:1009500005C016950795F794E794319687E01695AC
:100960000795F794E7948A95D1F705C0EE24FF2404
:100970008701EFEFF0E06E2F679566276795902F60
:100980009F77D794DD24D7948E2F8695492F462BB9
:10099000582F5D29B701CA011F910F91FF90EF9069
:1009A000DF900895FC01DB01408151812281622F9B
:1009B0006F7770E0221F2227221F9381892F880FD3
:1009C000822B282F30E0991F9927991F11969C930D
:1009D000119721153105A9F54115510561057105DD
:1009E00011F482E037C082E89FEF13969C938E93B8
:1009F00012979A01AB0167E0220F331F441F551F66
:100A00006A95D1F783E08C930DC0220F331F441FEA
:100A1000551F12968D919C911397019713969C9355
:100A20008E931297203080E0380780E0480780E4FA
:100A3000580758F314962D933D934D935C93179755
:100A400008952F3F310579F4411551056105710570
:100A500019F484E08C93089564FF03C081E08C93C3
:100A600012C01C9210C02F57304013963C932E9307
:100A7000129783E08C9387E0440F551F661F771F02
:100A80008A95D1F7706414964D935D936D937C9322
:100A9000179708951F93DC01FB019C91923008F495
:100AA00047C08081823008F443C0943051F41196DD
:100AB0001C91843099F58181682F70E0611B710968
:100AC0003FC0843021F0923031F48230B9F181811D
:100AD000882389F12DC011961C9111978230F1F075
:100AE00081811817D9F412962D913C911397828128
:100AF00093818217930794F028173907BCF0149656
:100B00008D919D910D90BC91A02D248135814681C0
:100B10005781281739074A075B0718F4112341F05A
:100B20000AC082179307A407B50740F4112319F0F0
:100B300061E070E005C06FEF7FEF02C060E070E041
:100B4000CB011F910895DF93CF93CDB7DEB7A7E216
:100B5000B0E0E7E2F0E0808180648C93A7E2B0E04F
:100B6000E7E2F0E080818F778C93A7E2B0E0E7E2E4
:100B7000F0E080818F7D8C93A6E2B0E0E6E2F0E0C9
:100B800080818E7F8C93A6E2B0E0E6E2F0E0808187
:100B900082608C93A6E2B0E0E6E2F0E080818460BF
:100BA0008C93A6E2B0E0E6E2F0E0808180688C936E
:100BB000A6E2B0E0E6E2F0E0808188608C93CF911D
:100BC000DF910895DF93CF9300D00F92CDB7DEB7BA
:100BD00089837B836A8389818830E0F4A7E2B0E06F
:100BE000E7E2F0E08081807E8C93A7E2B0E0E7E26C
:100BF000F0E090818981892B8C938A819B819093ED
:100C0000E3008093E200A6E2B0E0E6E2F0E080815B
:100C100080648C930F900F900F90CF91DF91089587
:100C2000DF93CF9300D0CDB7DEB79A8389838981D4
:100C30009A819093E1008093E0000F900F90CF9104
:100C4000DF9108951F920F920FB60F9211242F93E8
:100C50003F934F935F936F937F938F939F93AF9344
:100C6000BF93EF93FF93DF93CF93CDB7DEB7A09100
:100C7000E200B091E300E4E2F0E0808191818D93A5
:100C80009C93E091E000F091E1000995CF91DF9114
:100C9000FF91EF91BF91AF919F918F917F916F9154
:100CA0005F914F913F912F910F900FBE0F901F902A
:100CB0001895DF93CF93CDB7DEB727970FB6F8948B
:100CC000DEBF0FBECDBF89836A834B8389818430A9
:100CD00008F0EEC08A81883008F0EAC08B8181304C
:100CE00009F06FC08981282F30E03F832E838E81E9
:100CF0009F818130910549F12E813F81223031055C
:100D00002CF48E819F81009761F0D2C02E813F81AB
:100D10002230310571F18E819F8183309105E9F197
:100D2000C7C0AAE3B0E0EAE3F0E08081482F8A81FF
:100D3000282F30E081E090E0022E02C0880F991F3A
:100D40000A94E2F7842B8C93B3C0A7E3B0E0E7E307
:100D5000F0E08081482F8A81282F30E081E090E008
:100D6000022E02C0880F991F0A94E2F7842B8C93FD
:100D70009FC0A4E3B0E0E4E3F0E08081482F8A81E3
:100D8000282F30E081E090E0022E02C0880F991FEA
:100D90000A94E2F7842B8C938BC0A1E3B0E0E1E3EB
:100DA000F0E08081482F8A81282F30E081E090E0B8
:100DB000022E02C0880F991F0A94E2F7842B8C93AD
:100DC00077C08B81882309F073C08981282F30E098
:100DD0003D832C838C819D818130910559F12C813B
:100DE0003D81223031052CF48C819D81009769F082
:100DF0005FC02C813D812230310589F18C819D813C
:100E00008330910509F440C053C0AAE3B0E0EAE39F
:100E1000F0E08081482F8A81282F30E081E090E047
:100E2000022E02C0880F991F0A94E2F7809584234E
:100E30008C933EC0A7E3B0E0E7E3F0E08081482F69
:100E40008A81282F30E081E090E0022E02C0880FD6
:100E5000991F0A94E2F7809584238C9329C0A4E318
:100E6000B0E0E4E3F0E08081482F8A81282F30E071
:100E700081E090E0022E02C0880F991F0A94E2F7E9
:100E8000809584238C9314C0A1E3B0E0E1E3F0E00B
:100E90008081482F8A81282F30E081E090E0022E67
:100EA00002C0880F991F0A94E2F7809584238C93DF
:100EB00027960FB6F894DEBF0FBECDBFCF91DF915E
:100EC0000895DF93CF93CDB7DEB727970FB6F89489
:100ED000DEBF0FBECDBF89836A834B838981843097
:100EE00008F0EEC08A81883008F0EAC08B8181303A
:100EF00009F06FC08981282F30E03F832E838E81D7
:100F00009F818130910549F12E813F812230310549
:100F10002CF48E819F81009761F0D2C02E813F8199
:100F20002230310571F18E819F8183309105E9F185
:100F3000C7C0ABE3B0E0EBE3F0E08081482F8A81EB
:100F4000282F30E081E090E0022E02C0880F991F28
:100F50000A94E2F7842B8C93B3C0A8E3B0E0E8E3F3
:100F6000F0E08081482F8A81282F30E081E090E0F6
:100F7000022E02C0880F991F0A94E2F7842B8C93EB
:100F80009FC0A5E3B0E0E5E3F0E08081482F8A81CF
:100F9000282F30E081E090E0022E02C0880F991FD8
:100FA0000A94E2F7842B8C938BC0A2E3B0E0E2E3D7
:100FB000F0E08081482F8A81282F30E081E090E0A6
:100FC000022E02C0880F991F0A94E2F7842B8C939B
:100FD00077C08B81882309F073C08981282F30E086
:100FE0003D832C838C819D818130910559F12C8129
:100FF0003D81223031052CF48C819D81009769F070
:101000005FC02C813D812230310589F18C819D8129
:101010008330910509F440C053C0ABE3B0E0EBE38B
:10102000F0E08081482F8A81282F30E081E090E035
:10103000022E02C0880F991F0A94E2F7809584233C
:101040008C933EC0A8E3B0E0E8E3F0E08081482F55
:101050008A81282F30E081E090E0022E02C0880FC4
:10106000991F0A94E2F7809584238C9329C0A5E305
:10107000B0E0E5E3F0E08081482F8A81282F30E05E
:1010800081E090E0022E02C0880F991F0A94E2F7D7
:10109000809584238C9314C0A2E3B0E0E2E3F0E0F7
:1010A0008081482F8A81282F30E081E090E0022E55
:1010B00002C0880F991F0A94E2F7809584238C93CD
:1010C00027960FB6F894DEBF0FBECDBFCF91DF914C
:1010D0000895DF93CF9300D000D00F92CDB7DEB745
:1010E0008A836B8319828A81282F30E03D832C8389
:1010F0004C815D814130510541F18C819D8182306F
:10110000910534F42C813D812115310561F052C0E7
:101110004C815D814230510551F18C819D8183303C
:101120009105B9F147C0E9E3F0E08081282F30E074
:101130008B81882F90E0A90102C0559547958A952B
:10114000E2F7CA018170898335C0E6E3F0E080816F
:10115000282F30E08B81882F90E0A90102C055959F
:1011600047958A95E2F7CA018170898323C0E3E33A
:10117000F0E08081282F30E08B81882F90E0A9015A
:1011800002C0559547958A95E2F7CA018170898317
:1011900011C0E0E3F0E08081282F30E08B81882FC0
:1011A00090E0A90102C0559547958A95E2F7CA01DA
:1011B0008170898389810F900F900F900F900F900D
:1011C000CF91DF910895DF93CF9300D000D0CDB7BA
:1011D000DEB789836A838981843008F072C08A818E
:1011E000883008F06EC08981282F30E03C832B8343
:1011F0008B819C818130910549F12B813C8122308A
:1012000031052CF48B819C81009761F05AC02B81B1
:101210003C812230310571F18B819C8183309105B5
:10122000E9F14FC0ABE3B0E0EBE3F0E08081482FA1
:101230008A81282F30E081E090E0022E02C0880FE2
:10124000991F0A94E2F784278C933BC0A8E3B0E08F
:10125000E8E3F0E08081482F8A81282F30E081E0A8
:1012600090E0022E02C0880F991F0A94E2F78427AB
:101270008C9327C0A5E3B0E0E5E3F0E08081482F40
:101280008A81282F30E081E090E0022E02C0880F92
:10129000991F0A94E2F784278C9313C0A2E3B0E06D
:1012A000E2E3F0E08081482F8A81282F30E081E05E
:1012B00090E0022E02C0880F991F0A94E2F784275B
:1012C0008C930F900F900F900F90CF91DF91089516
:1012D000DF93CF9300D000D0CDB7DEB789836A8388
:1012E0008981843090F58981282F30E03C832B83DD
:1012F0008B819C8181309105D1F02B813C81223002
:1013000031052CF48B819C81009761F01EC02B81EC
:101310003C812230310581F08B819C8183309105A5
:1013200081F013C0EAE3F0E08A8180830EC0E7E336
:10133000F0E08A81808309C0E4E3F0E08A81808361
:1013400004C0E1E3F0E08A8180830F900F900F905A
:101350000F90CF91DF910895DF93CF9300D000D00D
:10136000CDB7DEB789836A838981843090F589811E
:10137000282F30E03C832B838B819C818130910529
:10138000D1F02B813C81223031052CF48B819C8162
:10139000009761F01EC02B813C812230310581F025
:1013A0008B819C818330910581F013C0EBE3F0E0E9
:1013B0008A8180830EC0E8E3F0E08A81808309C0DF
:1013C000E5E3F0E08A81808304C0E2E3F0E08A8113
:1013D00080830F900F900F900F90CF91DF91089521
:1013E000DF93CF93CDB7DEB7AFE5B0E0EFE5F0E048
:1013F000808180688C93CF91DF910895DF93CF93A4
:10140000CDB7DEB72F970FB6F894DEBF0FBECDBFB6
:101410008FEF8F871092E400BBC09091E40081E0D1
:10142000692F40E00E94610784E08093CE009FC056
:101430009091CE0081E0692F0E946908882309F00D
:1014400089C08091E400482F50E08091CE00882F21
:1014500090E09C0124503040CA01880F991F880FEA
:10146000991F820F931FFC01E053FF4F80818F87EC
:1014700080E090E0A0E2B1E48B879C87AD87BE87D7
:101480006B857C858D859E8520E030E04AEF54E4B5
:101490000E941F02DC01CB018F839887A987BA873E
:1014A0006F81788589859A8520E030E040E85FE3A8
:1014B0000E94790388232CF481E090E09E838D8341
:1014C0003FC06F81788589859A8520E03FEF4FE79F
:1014D00057E40E94190318164CF56B857C858D85A1
:1014E0009E8520E030E040E251E40E941F02DC01D2
:1014F000CB01BC01CD010E944900DC01CB019E83E0
:101500008D830FC088EC90E09C838B838B819C81C2
:101510000197F1F79C838B838D819E8101979E8338
:101520008D838D819E81009769F714C06F817885C6
:1015300089859A850E944900DC01CB019E838D83B9
:101540008D819E819A83898389819A810197F1F7A0
:101550009A8389839091CE0081E0692F0E94690867
:101560008823C1F38091CE008F5F8093CE0080915D
:10157000CE00883008F45CCF9091E40081E0692FC0
:1015800041E00E9461078091E4008F5F8093E40056
:101590008091E400843008F440CF8F852F960FB6F9
:1015A000F894DEBF0FBECDBFCF91DF9108950F93AA
:1015B0001F93DF93CF93CDB7DEB7C455D0400FB69E
:1015C000F894DEBF0FBECDBFFE01EF5AFF4F80E0A3
:1015D00090E0ACE0B2E480839183A283B3838E0178
:1015E000035B1F4FFE01EF5AFF4F608171818281C3
:1015F000938120E030E04AEF54E40E941F02DC01B6
:10160000CB01F80180839183A283B383FE01E35B66
:10161000FF4F608171818281938120E030E040E85A
:101620005FE30E947903882344F4FE01E55BFF4FEA
:1016300081E090E09183808364C0FE01E35BFF4F13
:10164000608171818281938120E03FEF4FE757E411
:101650000E94190318160CF043C0FE01EF5AFF4F09
:10166000608171818281938120E030E040E251E429
:101670000E941F02DC01CB018E01055B1F4FBC01E4
:10168000CD010E944900DC01CB01F80191838083E8
:101690001FC0FE01E75BFF4F88EC90E091838083E1
:1016A000FE01E75BFF4F808191810197F1F7FE0119
:1016B000E75BFF4F91838083DE01A55BBF4FFE0197
:1016C000E55BFF4F80819181019711969C938E93EA
:1016D000FE01E55BFF4F808191810097D1F627C025
:1016E0008E01055B1F4FFE01E35BFF4F608171813F
:1016F000828193810E944900DC01CB01F801918332
:101700008083DE01A95BBF4FFE01E55BFF4F808157
:1017100091818D939C93FE01E95BFF4F80819181C4
:101720000197F1F7FE01E95BFF4F9183808382E02F
:1017300062E041E00E946107FE01ED5BFF4F80E047
:1017400090E0A0E0B0E480839183A283B3838E0114
:10175000015C1F4FFE01ED5BFF4F60817181828153
:10176000938120E030E04AEF54E40E941F02DC0144
:10177000CB01F80180839183A283B383FE01FF969E
:10178000608171818281938120E030E040E85FE3F5
:101790000E94790388232CF481E090E09EAF8DAF06
:1017A00046C0FE01FF96608171818281938120E0B5
:1017B0003FEF4FE757E40E941903181664F5FE0146
:1017C000ED5BFF4F608171818281938120E030E089
:1017D00040E251E40E941F02DC01CB01BC01CD01BB
:1017E0000E944900DC01CB019EAF8DAF0FC088EC99
:1017F00090E09CAF8BAF8BAD9CAD0197F1F79CAFA8
:101800008BAF8DAD9EAD01979EAF8DAF8DAD9EAD73
:10181000009769F716C0FE01FF9660817181828191
:1018200093810E944900DC01CB019EAF8DAF8DAD4D
:101830009EAD9AAF89AF89AD9AAD0197F1F79AAF96
:1018400089AF82E062E040E00E94610780E090E0C2
:10185000A0E0B0E48DAB9EABAFABB8AF6DA97EA9F5
:101860008FA998AD20E030E04AEF54E40E941F02B7
:10187000DC01CB0189AB9AABABABBCAB69A97AA954
:101880008BA99CA920E030E040E85FE30E94790347
:1018900088232CF481E090E098AB8FA73FC069A922
:1018A0007AA98BA99CA920E03FEF4FE757E40E945B
:1018B000190318164CF56DA97EA98FA998AD20E0E3
:1018C00030E040E251E40E941F02DC01CB01BC0188
:1018D000CD010E944900DC01CB0198AB8FA70FC05E
:1018E00088EC90E09EA78DA78DA59EA50197F1F7A6
:1018F0009EA78DA78FA598A9019798AB8FA78FA5B5
:1019000098A9009769F714C069A97AA98BA99CA91D
:101910000E944900DC01CB0198AB8FA78FA598A945
:101920009CA78BA78BA59CA50197F1F79CA78BA7DC
:1019300088E20E941D0E80E090E0A0E8BFE38FA344
:1019400098A7A9A7BAA76FA178A589A59AA520E00D
:1019500030E04AEF54E40E941F02DC01CB018BA36C
:101960009CA3ADA3BEA36BA17CA18DA19EA120E0F1
:1019700030E040E85FE30E94790388232CF481E0A3
:1019800090E09AA389A33FC06BA17CA18DA19EA1E9
:1019900020E03FEF4FE757E40E94190318164CF57B
:1019A0006FA178A589A59AA520E030E040E251E436
:1019B0000E941F02DC01CB01BC01CD010E94490045
:1019C000DC01CB019AA389A30FC088EC90E098A317
:1019D0008F8F8F8D98A10197F1F798A38F8F89A191
:1019E0009AA101979AA389A389A19AA1009769F75F
:1019F00014C06BA17CA18DA19EA10E944900DC01B5
:101A0000CB019AA389A389A19AA19E8F8D8F8D8DD9
:101A10009E8D0197F1F79E8F8D8F8CE00E941D0E99
:101A200080E090E0A0E8BFE3898F9A8FAB8FBC8FF6
:101A3000698D7A8D8B8D9C8D20E030E04AEF54E4E7
:101A40000E941F02DC01CB018D8B9E8BAF8BB88F68
:101A50006D897E898F89988D20E030E040E85FE3D2
:101A60000E94790388232CF481E090E09C8B8B8B7F
:101A70003FC06D897E898F89988D20E03FEF4FE7C9
:101A800057E40E94190318164CF5698D7A8D8B8DD9
:101A90009C8D20E030E040E251E40E941F02DC0116
:101AA000CB01BC01CD010E944900DC01CB019C8B24
:101AB0008B8B0FC088EC90E09A8B898B89899A89EF
:101AC0000197F1F79A8B898B8B899C8901979C8B65
:101AD0008B8B8B899C89009769F714C06D897E89EF
:101AE0008F89988D0E944900DC01CB019C8B8B8BE8
:101AF0008B899C89988B8F878F8598890197F1F7BF
:101B0000988B8F8781E00E941D0E80E090E0A0E01E
:101B1000B0E48B879C87AD87BE876B857C858D8580
:101B20009E8520E030E04AEF54E40E941F02DC0171
:101B3000CB018F839887A987BA876F81788589853C
:101B40009A8520E030E040E85FE30E947903882333
:101B50002CF481E090E09E838D833FC06F81788577
:101B600089859A8520E03FEF4FE757E40E941903EB
:101B700018164CF56B857C858D859E8520E030E0C0
:101B800040E251E40E941F02DC01CB01BC01CD0107
:101B90000E944900DC01CB019E838D830FC088EC3D
:101BA00090E09C838B838B819C810197F1F79C83D0
:101BB0008B838D819E8101979E838D838D819E81F4
:101BC000009769F714C06F81788589859A850E948E
:101BD0004900DC01CB019E838D838D819E819A8398
:101BE000898389819A810197F1F79A83898386E0B5
:101BF0000E941D0ECC5ADF4F0FB6F894DEBF0FBE09
:101C0000CDBFCF91DF911F910F910895DF93CF93B7
:101C10000F92CDB7DEB7898382E060E041E00E9499
:101C2000610782E061E040E00E94610789810E94D3
:101C3000A90F0F90CF91DF910895DF93CF930F926B
:101C4000CDB7DEB7898382E060E040E00E946107A3
:101C500082E061E040E00E94610789810E94A90F53
:101C60000F90CF91DF910895DF93CF9300D0CDB740
:101C7000DEB79A8389830AC0E981FA8180810E9454
:101C8000060E89819A8101969A838983E981FA8176
:101C90008081882389F70F900F90CF91DF9108956D
:101CA000DF93CF9300D000D0CDB7DEB789836A83AE
:101CB00089818230D8F48A818031C0F48981282FCB
:101CC00030E03C832B838B819C81009731F02B810A
:101CD0003C812130310531F009C08A8180580E9451
:101CE0001D0E04C08A8180540E941D0E0F900F901B
:101CF0000F900F90CF91DF910895EF92FF920F9385
:101D00001F93DF93CF93CDB7DEB72C970FB6F89420
:101D1000DEBF0FBECDBF6D837E838F839887198210
:101D20001A821B821C8236C089819A81AB81BC8158
:101D30002AE030E040E050E0BC01CD010E94AA184A
:101D40007B018C018D819E81AF81B8852AE030E0D6
:101D500040E050E0BC01CD010E94DD18DC01CB0168
:101D60008E0D9F1DA01FB11F89839A83AB83BC83F7
:101D70008D819E81AF81B8852AE030E040E050E05F
:101D8000BC01CD010E94DD18DA01C9018D839E835B
:101D9000AF83B8878D819E81AF81B8850097A105FB
:101DA000B10511F6C0C089819A81AB81BC812AE05E
:101DB00030E040E050E0BC01CD010E94DD18DC01C4
:101DC000CB0189879A87AB87BC8789859A85AB8544
:101DD000BC8584309105A105B10509F47BC08985D6
:101DE0009A85AB85BC8585309105A105B10548F57F
:101DF00089859A85AB85BC8581309105A105B105A2
:101E000009F45CC089859A85AB85BC8581309105D4
:101E1000A105B10508F44EC089859A85AB85BC85BE
:101E200082309105A105B10509F44CC089859A85D8
:101E3000AB85BC8583309105A105B10509F446C089
:101E400060C089859A85AB85BC8587309105A105E1
:101E5000B10509F44BC089859A85AB85BC8588306E
:101E60009105A105B10598F489859A85AB85BC8556
:101E700085309105A105B10589F189859A85AB85E4
:101E8000BC8586309105A105B10561F13AC089850F
:101E90009A85AB85BC8588309105A105B10551F1C6
:101EA00089859A85AB85BC8589309105A105B105E9
:101EB00029F127C080E30E94060E23C081E30E941F
:101EC000060E1FC082E30E94060E1BC083E30E9421
:101ED000060E17C084E30E94060E13C085E30E941D
:101EE000060E0FC086E30E94060E0BC087E30E9419
:101EF000060E07C088E30E94060E03C089E30E9415
:101F0000060E89819A81AB81BC812AE030E040E0F5
:101F100050E0BC01CD010E94DD18DA01C9018983BE
:101F20009A83AB83BC8389819A81AB81BC81009702
:101F3000A105B10509F037CF2C960FB6F894DEBF96
:101F40000FBECDBFCF91DF911F910F91FF90EF900A
:101F500008950F931F93DF93CF93CDB7DEB7C55589
:101F6000D0400FB6F894DEBF0FBECDBFFE01EB5AD6
:101F7000FF4F8083FE01EB5AFF4F8081883209F0CA
:101F800079C1FE01EB5AFF4F8081982F991F992745
:101F9000991F80E067E0492F0E946107FE01EB5A1C
:101FA000FF4F80818295869586958370982F9170DA
:101FB00080E066E0492F0E946107FE01EB5AFF4F67
:101FC0008081829586958770982F917080E065E07A
:101FD000492F0E946107FE01EB5AFF4F80818295D5
:101FE0008F70982F917080E064E0492F0E94610704
:101FF00082E062E041E00E946107FE01EF5AFF4F7C
:1020000080E090E0A0E0B0E480839183A283B3837A
:102010008E01035B1F4FFE01EF5AFF4F60817181FC
:102020008281938120E030E04AEF54E40E941F0255
:10203000DC01CB01F80180839183A283B383FE018D
:10204000E35BFF4F608171818281938120E030E00A
:1020500040E85FE30E947903882344F4FE01E55BD6
:10206000FF4F81E090E09183808364C0FE01E35BD9
:10207000FF4F608171818281938120E03FEF4FE7C4
:1020800057E40E94190318160CF043C0FE01EF5AE2
:10209000FF4F608171818281938120E030E040E2D6
:1020A00051E40E941F02DC01CB018E01055B1F4F32
:1020B000BC01CD010E944900DC01CB01F8019183F4
:1020C00080831FC0FE01E75BFF4F88EC90E09183A7
:1020D0008083FE01E75BFF4F808191810197F1F7DB
:1020E000FE01E75BFF4F91838083DE01A55BBF4F5D
:1020F000FE01E55BFF4F80819181019711969C93D2
:102100008E93FE01E55BFF4F808191810097D1F6B0
:1021100027C08E01055B1F4FFE01E35BFF4F60810F
:102120007181828193810E944900DC01CB01F80119
:1021300091838083DE01A95BBF4FFE01E55BFF4F0A
:10214000808191818D939C93FE01E95BFF4F80819B
:1021500091810197F1F7FE01E95BFF4F9183808345
:1021600082E062E040E00E946107FE01ED5BFF4F0C
:1021700080E090E0A0E0B0E480839183A283B38309
:102180008E01015C1F4FFE01ED5BFF4F608171818D
:102190008281938120E030E04AEF54E40E941F02E4
:1021A000DC01CB01F80180839183A283B383FE011C
:1021B000FF96608171818281938120E030E040E868
:1021C0005FE30E94790388232CF481E090E09EAFC6
:1021D0008DAF46C0FE01FF9660817181828193813F
:1021E00020E03FEF4FE757E40E941903181664F50B
:1021F000FE01ED5BFF4F608171818281938120E060
:1022000030E040E251E40E941F02DC01CB01BC013E
:10221000CD010E944900DC01CB019EAF8DAF0FC004
:1022200088EC90E09CAF8BAF8BAD9CAD0197F1F744
:102230009CAF8BAF8DAD9EAD01979EAF8DAF8DAD39
:102240009EAD009769F716C0FE01FF96608171810F
:10225000828193810E944900DC01CB019EAF8DAF4A
:102260008DAD9EAD9AAF89AF89AD9AAD0197F1F76B
:102270009AAF89AFFE01EB5AFF4F8081982F991FCB
:102280009927991F80E067E0492F0E946107FE01AE
:10229000EB5AFF4F80818295869586958370982FA3
:1022A000917080E066E0492F0E946107FE01EB5AC1
:1022B000FF4F8081829586958770982F917080E07E
:1022C00065E0492F0E946107FE01EB5AFF4F8081B4
:1022D00082958F70982F917080E064E0492F0E9462
:1022E000610782E062E041E00E94610780E090E0E7
:1022F000A0E0B0E48DAB9EABAFABB8AF6DA97EA94B
:102300008FA998AD20E030E04AEF54E40E941F020C
:10231000DC01CB0189AB9AABABABBCAB69A97AA9A9
:102320008BA99CA920E030E040E85FE30E9479039C
:1023300088232CF481E090E098AB8FA73FC069A977
:102340007AA98BA99CA920E03FEF4FE757E40E94B0
:10235000190318164CF56DA97EA98FA998AD20E038
:1023600030E040E251E40E941F02DC01CB01BC01DD
:10237000CD010E944900DC01CB0198AB8FA70FC0B3
:1023800088EC90E09EA78DA78DA59EA50197F1F7FB
:102390009EA78DA78FA598A9019798AB8FA78FA50A
:1023A00098A9009769F714C069A97AA98BA99CA973
:1023B0000E944900DC01CB0198AB8FA78FA598A99B
:1023C0009CA78BA78BA59CA50197F1F79CA78BA732
:1023D00082E062E040E00E94610780E090E0A0E0DF
:1023E000B0E48FA398A7A9A7BAA76FA178A589A5DC
:1023F0009AA520E030E04AEF54E40E941F02DC017D
:10240000CB018BA39CA3ADA3BEA36BA17CA18DA18B
:102410009EA120E030E040E85FE30E94790388233A
:102420002CF481E090E09AA389A33FC06BA17CA12A
:102430008DA19EA120E03FEF4FE757E40E941903D2
:1024400018164CF56FA178A589A59AA520E030E073
:1024500040E251E40E941F02DC01CB01BC01CD012E
:102460000E944900DC01CB019AA389A30FC088EC2C
:1024700090E098A38F8F8F8D98A10197F1F798A383
:102480008F8F89A19AA101979AA389A389A19AA163
:10249000009769F714C06BA17CA18DA19EA10E9439
:1024A0004900DC01CB019AA389A389A19AA19E8F3F
:1024B0008D8F8D8D9E8D0197F1F79E8F8D8FFE01F3
:1024C000EB5AFF4F8081869586958695982F91705F
:1024D00080E067E0492F0E946107FE01EB5AFF4F41
:1024E000808186958695982F917080E066E0492FCF
:1024F0000E946107FE01EB5AFF4F80818695982F5D
:10250000917080E065E0492F0E946107FE01EB5A5F
:10251000FF4F8081982F917080E064E0492F0E94E6
:10252000610782E062E041E00E94610780E090E0A4
:10253000A0E0B0E4898F9A8FAB8FBC8F698D7A8DC4
:102540008B8D9C8D20E030E04AEF54E40E941F0206
:10255000DC01CB018D8B9E8BAF8BB88F6D897E8913
:102560008F89988D20E030E040E85FE30E94790396
:1025700088232CF481E090E09C8B8B8B3FC06D898D
:102580007E898F89988D20E03FEF4FE757E40E94C6
:10259000190318164CF5698D7A8D8B8D9C8D20E072
:1025A00030E040E251E40E941F02DC01CB01BC019B
:1025B000CD010E944900DC01CB019C8B8B8B0FC0AD
:1025C00088EC90E09A8B898B89899A890197F1F739
:1025D0009A8B898B8B899C8901979C8B8B8B8B89A0
:1025E0009C89009769F714C06D897E898F89988DC1
:1025F0000E944900DC01CB019C8B8B8B8B899C89D1
:10260000988B8F878F8598890197F1F7988B8F87A3
:1026100082E062E040E00E94610780E090E0A0E09C
:10262000B0E48B879C87AD87BE876B857C858D8565
:102630009E8520E030E04AEF54E40E941F02DC0156
:10264000CB018F839887A987BA876F817885898521
:102650009A8520E030E040E85FE30E947903882318
:102660002CF481E090E09E838D833FC06F8178855C
:1026700089859A8520E03FEF4FE757E40E941903D0
:1026800018164CF56B857C858D859E8520E030E0A5
:1026900040E251E40E941F02DC01CB01BC01CD01EC
:1026A0000E944900DC01CB019E838D830FC088EC22
:1026B00090E09C838B838B819C810197F1F79C83B5
:1026C0008B838D819E8101979E838D838D819E81D9
:1026D000009769F714C06F81788589859A850E9473
:1026E0004900DC01CB019E838D838D819E819A837D
:1026F000898389819A810197F1F79A838983CB5ADB
:10270000DF4F0FB6F894DEBF0FBECDBFCF91DF9184
:102710001F910F910895DF93CF93CDB7DEB7A3E557
:10272000B0E0E3E5F0E08081877F8C93A3E5B0E043
:10273000E3E5F0E080818F7B8C93A3E5B0E0E3E5F7
:10274000F0E080818E7F8C93A3E5B0E0E3E5F0E0DC
:10275000808182608C93A3E5B0E0E3E5F0E08081C6
:102760008B7F8C93A9E5B0E0E9E5F0E080818160A2
:102770008C93E2E5F0E080EC8083CF91DF910895C7
:10278000DF93CF93CDB7DEB7A3E5B0E0E3E5F0E0AC
:10279000808188608C93A3E5B0E0E3E5F0E0808180
:1027A0008F7B8C93A3E5B0E0E3E5F0E0808181606E
:1027B0008C93A3E5B0E0E3E5F0E0808182608C9348
:1027C000A3E5B0E0E3E5F0E080818B7F8C93ECE55E
:1027D000F0E08DE78083A9E5B0E0E9E5F0E08081F5
:1027E00082608C93CF91DF910895DF93CF93CDB723
:1027F000DEB7A3E5B0E0E3E5F0E0808188608C938C
:10280000A3E5B0E0E3E5F0E0808180648C93A3E58C
:10281000B0E0E3E5F0E080818F7E8C93A3E5B0E04B
:10282000E3E5F0E0808180628C93A3E5B0E0E3E52E
:10283000F0E0808181608C93A3E5B0E0E3E5F0E017
:10284000808182608C93A3E5B0E0E3E5F0E08081D5
:102850008B7F8C93CF91DF910895DF93CF930F926D
:10286000CDB7DEB78983ECE5F0E0898180830F90F6
:10287000CF91DF910895DF93CF9300D0CDB7DEB72E
:102880009A83898389819A819093E6008093E500F9
:102890000F900F90CF91DF9108951F920F920FB676
:1028A0000F9211242F933F934F935F936F937F93D6
:1028B0008F939F93AF93BF93EF93FF93DF93CF9348
:1028C000CDB7DEB7E091E500F091E6000995CF9134
:1028D000DF91FF91EF91BF91AF919F918F917F9188
:1028E0006F915F914F913F912F910F900FBE0F907D
:1028F0001F901895DF93CF9300D0CDB7DEB79A83A2
:10290000898389819A819093E8008093E7000F90F2
:102910000F90CF91DF9108951F920F920FB60F92F3
:1029200011242F933F934F935F936F937F938F93D4
:102930009F93AF93BF93EF93FF93DF93CF93CDB765
:10294000DEB7E091E700F091E8000995CF91DF91C3
:10295000FF91EF91BF91AF919F918F917F916F9177
:102960005F914F913F912F910F900FBE0F901F904D
:102970001895DF93CF930F92CDB7DEB71982AAE2F5
:10298000B0E0EAE2F0E0808180618C93AAE2B0E0FE
:10299000EAE2F0E0808188608C9389818F7B898373
:1029A00089818F7D898389818F7E89838981877FD2
:1029B0008983898182608983898184608983AAE28D
:1029C000B0E0EAE2F0E080818B7F8C9389818068BF
:1029D0008983E0E4F0E089818083E9E2F0E083E349
:1029E0008083E0E4F0E010820F90CF91DF910895B2
:1029F000DF93CF9300D0CDB7DEB78983EBE2F0E071
:102A00008081ECE2F0E0898180830F900F90CF917C
:102A1000DF910895DF93CF9300D00F92CDB7DEB74B
:102A20009B838A831982198218C0EBE2F0E08081CF
:102A300082958695869583708823B9F3ACE2B0E0E1
:102A40008981282F30E08A819B81FC01E20FF31FEE
:102A500080818C9389818F5F89838981282F30E0E1
:102A60008A819B81FC01E20FF31F80818823E9F6B4
:102A70000F900F900F90CF91DF910895DF93CF9338
:102A8000CDB7DEB7EBE2F0E080818823DCF7ECE243
:102A9000F0E08081CF91DF910895DF93CF9300D054
:102AA0000F92CDB7DEB79B838A8319820EC08981CE
:102AB000282F30E08A819B81FC01E20FF31F808187
:102AC0000E94F81489818F5F89838981282F30E0E3
:102AD0008A819B81FC01E20FF31F8081882339F7F3
:102AE0000F900F900F90CF91DF910895DF93CF93C8
:102AF000CDB7DEB78091ED009091EE00A091EF0090
:102B0000B091F0000196A11DB11D8093ED0090934E
:102B1000EE00A093EF00B093F0008091ED00909153
:102B2000EE00A091EF00B091F00083342FE0920707
:102B300020E0A20720E0B20791F429EE30E080E027
:102B4000B9010E94E2051092ED001092EE00109281
:102B5000EF001092F000E2E5F0E080EC8083CF918E
:102B6000DF910895DF93CF93CDB7DEB78091E90071
:102B70009091EA00CC01A0E0B0E028E833E140E029
:102B800050E0BC01CD010E94AA18DC01CB01072E48
:102B90007AE0B695A795979587957A95D1F7702D98
:102BA0009093EC008093EB008091EB009091EC000F
:102BB0002AE030E0B9010E94C918CB019093F300DC
:102BC0008093F2008091F2009091F3008832910599
:102BD00048F181E00E941D0E80E690E00E94340ED4
:102BE00081E090E060E070E00E94500E88E690E0A6
:102BF0000E94340E8091F2009091F300CC01A0E08D
:102C0000B0E0BC01CD010E947D0E82E063E041E0B6
:102C10000E94610783E063E00E94E30881E0809303
:102C2000F10013C08091F100813079F481E00E94BD
:102C30001D0E82E060E040E00E94610783E063E0F7
:102C400040E00E9461071092F1000E943E158093BF
:102C5000CF008091CF00853021F08091CF00853367
:102C600029F482E064E041E00E9461078091CF0096
:102C7000843321F08091CF00843029F482E064E035
:102C800040E00E9461078091CF00873021F0809161
:102C9000CF00873329F482E065E041E00E946107BC
:102CA0008091CF00863321F08091CF00863029F4C7
:102CB00082E065E040E00E9461078091CF008823B8
:102CC00021F08091CF00803329F483E062E040E07E
:102CD0000E9461078091CF00813321F08091CF0065
:102CE000813029F483E062E041E00E946107CF91E6
:102CF000DF910895DF93CF93CDB7DEB7E4970FB69A
:102D0000F894DEBF0FBECDBF83E061E041E00E94DA
:102D1000590683E060E040E00E9459060E94B91421
:102D200080E060EF0E94680983E062E041E00E9479
:102D3000590683E063E041E00E94590682E063E0C7
:102D400041E00E94590682E064E041E00E94590699
:102D500082E065E041E00E94590682E060E041E0E7
:102D60000E94590682E061E041E00E94590682E03B
:102D700062E041E00E94590681E06FE00E9468092C
:102D800081E06FEF0E94AC0986E795E10E943B1459
:102D90000E94D70A0E94A30582EB95E10E941006CB
:102DA0000E94F0090E948B1381E00E941D0E86E7AD
:102DB00090E00E94340E80EC0E941D0E1FA68FEF43
:102DC0008EA71DA61CA689C00E94FE098EA78EA5EF
:102DD0008F3F09F482C08EA50E94060E8FA5282F72
:102DE00030E0CE01C096FC01E20FF31F8EA5808378
:102DF0008FA58F5F8FA780E090E0AAE7B4E48FA350
:102E000098A7A9A7BAA76FA178A589A59AA520E038
:102E100030E04AEF54E40E941F02DC01CB018BA397
:102E20009CA3ADA3BEA36BA17CA18DA19EA120E01C
:102E300030E040E85FE30E94790388232CF481E0CE
:102E400090E09AA389A33FC06BA17CA18DA19EA114
:102E500020E03FEF4FE757E40E94190318164CF5A6
:102E60006FA178A589A59AA520E030E040E251E461
:102E70000E941F02DC01CB01BC01CD010E94490070
:102E8000DC01CB019AA389A30FC088EC90E098A342
:102E90008F8F8F8D98A10197F1F798A38F8F89A1BC
:102EA0009AA101979AA389A389A19AA1009769F78A
:102EB00014C06BA17CA18DA19EA10E944900DC01E0
:102EC000CB019AA389A389A19AA19E8F8D8F8D8D05
:102ED0009E8D0197F1F79E8F8D8F8FA5853008F419
:102EE00073CF88A9813309F09CC089A9823309F086
:102EF00098C08AA9833309F094C08BA9843309F060
:102F000090C08CA9853309F08CC08CA5882311F45E
:102F100081E08CA783E062E041E00E94610781E0EC
:102F20000E941D0E88E890E00E94340E80EC0E9402
:102F30001D0E84E990E00E94340E80E090E0AAEF3C
:102F4000B3E4898F9A8FAB8FBC8F698D7A8D8B8D0F
:102F50009C8D20E030E04AEF54E40E941F02DC0127
:102F6000CB018D8B9E8BAF8BB88F6D897E898F89BE
:102F7000988D20E030E040E85FE30E9479038823E9
:102F80002CF481E090E09C8B8B8B3FC06D897E8917
:102F90008F89988D20E03FEF4FE757E40E94190397
:102FA00018164CF5698D7A8D8B8D9C8D20E030E064
:102FB00040E251E40E941F02DC01CB01BC01CD01C3
:102FC0000E944900DC01CB019C8B8B8B0FC088ECED
:102FD00090E09A8B898B89899A890197F1F79A8B6E
:102FE000898B8B899C8901979C8B8B8B8B899C8986
:102FF000009769F714C06D897E898F89988D0E942A
:103000004900DC01CB019C8B8B8B8B899C89988B35
:103010008F878F8598890197F1F7988B8F871FA6E7
:103020005CCF8DA5823098F48DA58F5F8DA781E050
:103030000E941D0E84EA90E00E94340E80EC0E94F3
:103040001D0E8FEA90E00E94340E1FA646CF81E04D
:103050000E941D0E8AEB90E00E94340E1BA675C0E4
:1030600080E090E4ACE9B5E48B879C87AD87BE87B0
:103070006B857C858D859E8520E030E04AEF54E4A9
:103080000E941F02DC01CB018F839887A987BA8732
:103090006F81788589859A8520E030E040E85FE39C
:1030A0000E94790388232CF481E090E09E838D8335
:1030B0003FC06F81788589859A8520E03FEF4FE793
:1030C00057E40E94190318164CF56B857C858D8595
:1030D0009E8520E030E040E251E40E941F02DC01C6
:1030E000CB01BC01CD010E944900DC01CB019E83D4
:1030F0008D830FC088EC90E09C838B838B819C81B7
:103100000197F1F79C838B838D819E8101979E832C
:103110008D838D819E81009769F714C06F817885BA
:1031200089859A850E944900DC01CB019E838D83AD
:103130008D819E819A83898389819A810197F1F794
:103140009A8389838BA58F5F8BA78BA58C3008F41E
:1031500087CF2ACE629FD001739FF001829FE00D3E
:10316000F11D649FE00DF11D929FF00D839FF00D06
:10317000749FF00D659FF00D9927729FB00DE11DB2
:10318000F91F639FB00DE11DF91FBD01CF0111248F
:103190000895AA1BBB1B51E107C0AA1FBB1FA6179E
:1031A000B70710F0A61BB70B881F991F5A95A9F7F0
:1031B00080959095BC01CD010895A1E21A2EAA1B1D
:1031C000BB1BFD010DC0AA1FBB1FEE1FFF1FA217D7
:1031D000B307E407F50720F0A21BB30BE40BF50BD4
:1031E000661F771F881F991F1A9469F7609570955D
:1031F000809590959B01AC01BD01CF0108952F9260
:103200003F924F925F926F927F928F929F92AF9276
:10321000BF92CF92DF92EF92FF920F931F93CF93C3
:10322000DF93CDB7DEB7CA1BDB0B0FB6F894DEBF5A
:103230000FBECDBF09942A88398848885F846E8480
:103240007D848C849B84AA84B984C884DF80EE80CA
:10325000FD800C811B81AA81B981CE0FD11D0FB6D3
:10326000F894DEBF0FBECDBFED010895F894FFCFF7
:103270005741524E494E470054454D5045524154D6
:10328000555245203D00454E54455220594F555208
:1032900020504153533A200077656C636F6D652071
:1032A0002D5F2D004120446F6F72204F70656E6559
:1032B00064202E0077726F6E6720706173730074E4
:1032C000727920616761696E3A006E6F7420616C7B
:1032D0006C6F77656400000000000000000004646B
:1032E0003132333D343536303738392B2F2A2D2EB5
:00000001FF
